$
:020000040020DA
:2010000010B581B0734800F0E3F8002372490B6072490B6000F0EFFB01F08AFC002803D099
:2010200001236F48037001E000F025FE01F000F902F0CEFC00F05EFA00236A490B606A488D
:20104000037801210B43037002F0D3FC6749087065490B78802213400B70002364490B804D
:201060000D28ECD00A28EAD0624C3A2805D100F0E5F8002800D19CE040E04C2805D100F011
:2010800071F9002800D194E038E04D2805D100F0ACFA002800D18CE030E04E2805D100F0CF
:2010A00088F9002800D184E028E0CE2804D100F0C7FA00287DD021E05E2804D100F0F7FA1C
:2010C000002876D01AE0E52804D100F027FB00286FD013E0CC2804D100F021FA002868D026
:2010E0000CE0ED2804D100F0B2F9002861D005E057285ED180233C480370A0E73648036889
:20110000002B07D13A480388002B03D03A4803683148036000F020FB00284AD000F077FC48
:20112000002846D0314908783A2801D040280DD168460330012100F08BFB002839D06A46A4
:20114000D0782E4A117843181B0632D127490878572807D157232370201C0022012102F001
:2011600060FC6CE73A2801D12E23F4E74C2805D123484C23C37001220621F0E7CE2803D01F
:201180005E2801D0E5280BD11D4CE070FF232371201C0122062102F044FCFC2323714EE700
:2011A0004D2800D14BE7CC2800D148E7ED2800D145E758232370201C0022012102F031FC04
:2011C0000022D0430123111C00F007FD01B010BD18E0C046C43D2000C83D2000CC3D2000AA
:2011E00008422000D03D2000094220000A422000004220000B422000D43D20000C42200013
:201200000D4220008546F7467047011C0020AC4B994209D9AB4A8B1AAB4A934204D3012251
:2012200012058B1A934206D2002904D04A1C02D0CB0700D501200006000E7047F0B5A34CE9
:20124000201C042100F004FB002800D181E0A04EA04D21786278A778E0785318FB18C318C6
:201260002B709D4B198012023A439C4B1A60002871D0022816D1002A6BD1022969D1201CDF
:2012800000F0E6FA002864D02178627853182878C01828700B0310011843306000238E4831
:2012A000038058E0042818D1002A52D1022950D1201C00F0CDFA002805D160782178431808
:2012C0002878C0182870207803066078000418433060002380490B803DE005281AD1002AC0
:2012E00037D1042935D1201C00F0B2FA002830D021786278A778E0785318FB18C3182C78CC
:20130000E4182C700B06110419433B02194301433160C3E701281CD10A431AD1201C0121EF
:2013200000F096FA002814D02378FF2B11D100F080FB00280DD06A482E2303700022012150
:2013400002F06FFB0022D0430123111C00F045FC01E0002005E06148036831685B18036011
:201360000120F0BD30B502F04CFBFC2805D102F048FB59490880042801D2002018E0574C6E
:2013800002F03FFB051C256002F03BFB03021D43256002F036FB03041D43256002F031FB3C
:2013A0000006284320604C480388043B0380012030BD70B500F03DFB002809D002F021FBF1
:2013C000FC2805D102F01DFB43490880042801D000203BE0414C02F014FB061C266002F095
:2013E00010FB03021E43266002F00BFB03041E43266002F006FB00063043206039483A4920
:201400000B78C3700122062102F00BFB37480568FF2000062B1A0120000683420DD30011A1
:201420002B1A834203D201231B059D4205D86868FFF7EBFE002800D0256023685A682260D2
:20144000281C0123002100F0C8FB012070BD00B588B00E2369460B7004234B7001238B70B9
:20146000ED23CB70FC2301A90B7000234B7002F0C8FAFC2803D102F0C4FA012801D0002089
:201480001BE002F0BEFA272802D9122301A94B7017490B78002B05D101A94B78002B01D195
:2014A00000F0CEFB68460122062102F0BAFA01A843780020002B00D1012008B000BDC046B9
:2014C000FFBF050001002000FEDF010013422000CC3D20000C42200000422000D43D2000AB
:2014E0000B4220000D4220000A422000C83D2000084220000021081C0822C30703D54308B9
:20150000AE48584000E04008013AF6D18B00AC4AD0500131FF2301339942ECD3704730B5B4
:2015200000F087FA002807D002F06BFAFC2803D102F067FA082801D0002023E002F061FA28
:20154000041C02F05EFA0002044302F05AFA0004044302F056FA0006044302F052FA051C59
:2015600002F04FFA0002054302F04BFA0004054302F047FA00060543291C201C00F003F876
:201580000006000E30BD10B588B0FF2424060E236A4613700823537001239370CC23D37055
:2015A000FC2301AA137000235370031B01221206934210D2834A13780A1C011B684606306A
:2015C000002B04D001F032FA002804D005E000F0EEFB002801D1002005E00A21684601223A
:2015E00002F01FFA012008B010BD30B500F021FA002807D002F005FAFC2803D102F001FA75
:20160000052801D000201AE06F4C02F0FAF9051C256002F0F6F903021D43256002F0F1F9C5
:2016200003041D43256002F0ECF903061D43256002F0E7F9011C281C00F058FA012030BD76
:2016400030B502F0DEF9FF282DD102F0DAF9042829D15D4D02F0D5F9041C2C6002F0D1F9FA
:2016600003021C432C6002F0CCF903041C432C6002F0C7F903061C432C60544B9C4201D1DC
:20168000534C2C605248231A834206D20020514B0021195401300B28F9DB201C002100F0DC
:2016A00071FA002801D1002000E0012030BD30B502F0A7F9FF282DD102F0A3F9042829D167
:2016C000414D02F09EF9041C2C6002F09AF903021C432C6002F095F903041C432C6002F06E
:2016E00090F903061C432C600020230B1B038100394A5158090B09038B4202D1354B0021F3
:20170000195401300B28F0DB201C012100F03AFA002801D1002000E0012030BD00B502F0FC
:2017200070F9FF2814D102F06CF9012810D125480378002B06D002F064F901F008F9002881
:2017400006D007E002F05DF900F0A1FA002801D1002000E0012000BD00B581B029E01F48CB
:2017600003784C2B04D102F04CF96946C87006E068460330012100F06BF800280BD06A4695
:20178000D178174803785B1803700F4A106800F0F9F8002801D1002029E00B480368013379
:2017A000036010480388013B03800F480368013303600C480388002BD1D117E02083B8EDE0
:2017C000D83D200008422000D43D2000EFEEBEFC0000100017422000E03A20000A42200073
:2017E0000C42200000422000D03D2000012001B000BD0047704700200123A04A1370A04BC3
:20180000A04A1380A04940230B7030234B7031238B709E490E230B7004234B7001238B7093
:20182000FC230B714871011C994B585401310B29FADB984908709849087098490870984980
:2018400008600021CB4397490B6097490870704770B5051C0E1C30E002F0D3F8031C303BD0
:201860000A2B01D230210AE0031C413B062B01D2372104E0031C613B062B17D25721401AA3
:201880000407240E02F0BDF8031C303B0A2B01D230210DE0031C413B062B01D2372107E0B6
:2018A000031C613B062B01D2572101E0002007E0431A1C432C700135013E002ECCD1012050
:2018C00070BD30B5002406E0035D0D5DAB4201D0002003E001349442F6DB012030BD10B5B2
:2018E000002416E06B490B786D4908682018002B06D06E4B195D01F056F8002806D007E0E5
:201900006A4B195D00F0CFF9002801D1002005E00134644803689C42E4DB012010BDF0B569
:20192000604E5F4B1A68002A03D1021C1A60002333603568002D23DB032D21D05B4F795520
:201940000024AB1898420ED16A1C5949381CFFF7B8FF002806D16A1C5649381CFFF7B1FFA0
:20196000002800D00124200603D0691C3160012007E0002D01DDFFF7B2FF0021C9433160C3
:201980000020F0BD30B5041C0D1CFF200006231A01200006834215D201233F4A1370201CAB
:2019A000FFF7BDFF002801D001202FE0394A1378291C201C002B02D000F0F5FF26E000F0E6
:2019C00072F923E00011231A834219D2012332490B70002083003849C9588C4208D1374B13
:2019E000195C8D4204D12A4B01211954081C0DE001300B28EEDB291C201C00F053FC05E0E7
:201A0000257023780020AB4200D1012030BD10B5002400F071F9002808D000F09AFF0028B6
:201A200004D000F0F2FC002800D001242006000E10BD30B50024164D2B5D002B08D01F4B75
:201A4000195DA0001C4A105800F02CFC002849D000232B5501340B2CEDDB00F0D6FC002888
:201A600040D0FFF73CFF00283CD0002400F044F9002827D000F06DFF002821E00942200091
:201A8000204E000002422000224220000D42200017422000084220002542200006422000AF
:201AA000D8412000DC4120000742200026422000D83A2000DB3A2000E03A20000C3B2000B7
:201AC00000D001242406240E57480378002B05D000F0DDFF54480378002B05D100F032F99C
:201AE000002801D1002000E0201C30BD10B5C1B00C1CFF2109060E236A461370FB2C2DD8A6
:201B0000231D5370012393704D23D370FC2301AA137000235370431A01221206934211D265
:201B20004148191C0378221C68460630002B04D000F068FF002811D01CE000F016F90028C8
:201B40000CD017E01111431A8B4209D2221C011C6846063000F083FB00280BD100200FE0CB
:201B6000002105E06A468A180378013093710131A142F7D3A11D6846012201F052FF01208C
:201B800041B010BD00B5294A831A01221206934215D20023264A1360DB43264A1360224A58
:201BA0001378002B04D0214A801A00F050FF13E0002910D10120C00300F03BF90CE0121143
:201BC000831A934207D2002902D000F022FD03E000F0EAFD00E0002000BD00B57D20C00126
:201BE0000138FDD1002B00D11A1C13490B68222083430B6001201043FFF7FBFD00BD002328
:201C00000E480360704730B5051C002408E0002101317D231B019942FAD3FFF7F0FF013471
:201C2000AC42F4D330BDC04608422000000000FFD8412000DC4120002004360008903200F9
:201C400040B584B0964E6946321C331D08364CC10C398300934A9A1801239B03138003111F
:201C60009B00C95803071B0F012098400B8883430B8004B040BD00B50120FFF7E1FF00F04A
:201C800089F900F053FF002387490B7000BD00B581B000F0BCF9684603300122002100F0B5
:201CA00064F801B000BDF0B5061C0F1C7E4C7F4D2078002809D0296843189E4206D000F0A7
:201CC0001BF8002812D0002020702E6021784B1C23702078764B5F5429684318990601D0AE
:201CE000402807D100F008F8002801D1002002E0002323700120F0BD10B582B06A4C2378EC
:201D0000002B01D101201BE0684A1068010A01AA9170D07000F016F800280DD0654B664828
:201D20000380A023009301AA023221786048022300F0C0FE012801D0002001E00023237026
:201D400002B010BD10B5002406E001347D231B019C4201D1002007E0A0220221002000F098
:201D600049FA0328F1D0012010BD70B581B0051C0C1C161CFFF7E6FF002815D0200A6946B4
:201D80008870CC70A02268460230022100F032FA012809D1A022311C281C00F036FA01288F
:201DA00002D10006000E00E0002001B070BDF0B585B0071C0C1C161C0021CD43FFF7C2FF1F
:201DC000002833D0200A694688706846C470A0220230022100F00EFA012819D026E03406C4
:201DE000240E102E00D91024A022211C01A800F00CFA002209E001AB985C68400006800DE2
:201E00002E492B0A0D585D400132A242F3D3361B002EE4D10023DB435D403D70280A78705E
:201E2000280CB8702B0EFB70012000E0002005B0F0BD30B581B0051CFF210020FFF733FF80
:201E4000012427E0201C01340021FFF72CFF00280ED0630602D1174B17480380A30519D18B
:201E60006846013001220021FFF77FFF002801D1002012E068464378002B0DD0FF2369467D
:201E80004B7001238B70CE23CB70481C0122032101F0C7FDAC42D5D3012001B030BDC04681
:201EA000100139000002390007422000E84120002A422000204E000002422000D83D200058
:201EC00000B5A7490B689B089B000220184308601E2000F02CFFA2490B689B089B000B6067
:201EE00000BD00B59E490B689B089B000B601E2000F01DFF9A490B689B089B000220184312
:201F000008601E2000F013FF95490B6803201843086000BD30B5924C606C000A00026064C6
:201F2000606C000A0002606423680321194321608C490B6803210B438A490B60FFF7C0FFCC
:201F40001E2000F0F4FE0A2523689B089B000121194321601E2000F0EAFE23680321194349
:201F600021601E2000F0E3FE013DEDD1FFF7A8FF1E2000F0DCFEFFF7B4FF7B4800F0D7FEFF
:201F8000784A13689B089B001360606CFF210843606430BD00B5002074490860744908703C
:201FA0007449087000F033F873490B681B0A1B020B6000BD00B5192149040968002804D08F
:201FC000202804D0302804D005E0042004E0082002E00A2000E00120F02101F059FD00BD82
:201FE00010B5664C63490B784F2213400B702368B0218B432360FFF7DDFFFF2800D9FF205E
:202000000106090EA164C005000EE06410BD00B5FFF7E6FF00BD554A13681906090E0220FA
:20202000084019D0002313604B0701D5032013E053480378002B0ED0002008E051490B6867
:202040008100514A895C195401300006000E4C490B789842F2D30120704710B5002404E071
:202060000134630701D1FFF7CAFDFFF7D4FF0028F6D010BD00B53D480368DB0706D5FFF756
:20208000ECFF42490870012339490B7000BDF0B583B002900C1C151C1F1C09A800780990B4
:2020A000FFF7E8FF38E010210998012803D11023D91B0906090E8C4201D22106090E0E1C06
:2020C0000998019008A8007800903B1C2A1C029800F027F8FFF7C1FF0006000E01281ED1EE
:2020E000029880190290A41B2404240C391C13D0FF310906090E6A5C92196A546A5CB2428D
:2021000008D309E0FF310906090E6A5C01326A54120601D10029F5D1002CC4D1012003B080
:20212000F0BDF0B581B01C1C194E0023F3642823013BFDD106AD2D783560002C0BD0002793
:2021400007E0BB00134D5D19D35D2B7001373F063F0EA742F5D307AA1278002A1CE0C0465A
:202160004800320020C43200102700004C0536006A4220006B4220008C0032004805360037
:202180006C422000EC412000500536006D42200000053600040536000DD1214A1060214A2C
:2021A00011700D1C0120002C1BD06B011C4325062D0E032015E000271A4A177065182D0632
:2021C0002D0E0BE03B199B00174A0092C25D02B401995A5402BC01373F063F0E8F42F1D3BD
:2021E000002012490B7818437564B0640120F06401B0F0BD00B582B0012301930092002372
:202200001A1CFFF744FF02B000BD00B582B00023019300921A1CFFF73AFF02B000BDC046D6
:20222000EC4120006C422000040536006B42200000209E4B0021195401302028F9D3002378
:202240009B490B709B490B709B4B9C490B609C490B685B095B011E2018430860704706E0D4
:202260000B78037001300131FF321206120E002AF6D10120704730B50022151C04880C8083
:202280000388A34201D1013202E01C1C0C80002201358C4B9D4201D1002002E0642AEFD3F1
:2022A000012030BDF0B581B0051C0F1C0026804C207800280BD0844A116843189D421CD0F4
:2022C00000F0A3F8002829D00021217015D17F480670EB070FD5013D69460231281CFFF74D
:2022E000CAFF00281AD0684643887948037001232370764803707448056021784B1C2370BA
:202300002078734B5F54704A11684318190501D0202806D100F079F8002801D1002001E0BC
:202320002670012001B0F0BD30B5624D2B78002B53D10124240520886188664B2380664A1F
:2023400062802388634A934204D12080618004232B7042E0902000F015F92088BF2816D110
:20236000902000F00FF960885C4B18404F23DB01984209D05A4B984206D05A4B984203D026
:202380009D239B01984202D1012028703CE0902000F001F92088012821D1902000F0FBF86F
:2023A00060884E4B1840504B984211D08B239B01984209D102232B7001234C490B707F235A
:2023C0009B034B490B6008E089239B01984206D102232B70002345490B70012014E09020CE
:2023E00000F0D9F843490888F02323801C280AD1902000F0D0F86088F02323803E4B9842C2
:2024000001D10323E5E7002030BDF0B582B0284D002201922878002800D19BE02C4E2A4FE3
:20242000C30712D5694602313A688318581EFFF722FF002800D189E028786A4651880B1297
:2024400033540130287001200190FFF76DFF00287CD018490878012803D0022801D00328A1
:202460005ED1386801210905431A1A0BD10820296CD20E4B5207520F01249440595C214059
:2024800011D100F0C6F8002860D010480378002B01D0FF2333700198002804D0731E2878FA
:2024A000C018FF230370002436E0C0466E422000064220008E42200002030A0A700032008C
:2024C00064003200C0270900F04120008F422000904220003412000078560000E0FF00004F
:2024E0002027000060530000A0220000B0422000F441200000021000BA220000A01940785A
:202500000302315D19436A4651803868201800F066F800281AD002342B789C42EED317E0A4
:20252000042813D100240DE0A01940780302315D19436A46518038680153035B50888342AA
:2025400004D102342B789C42EED301E0002002E000232B70012002B0F0BD00B5F023012222
:2025600012051380A74A1178012902D100F00AF807E0022901D0032902D100F00CF800E092
:20258000FEE700BDAA23A0490B8055239F490B809D4908807047AA239D490B8055239D49AC
:2025A0000B809B490880704730B593009A1A01E0013A0DD080230B40048880252C40A342D8
:2025C000F6D1F0236A031380052203E0013A01D1002003E003889942F8D1012030BD30B5E5
:2025E000041C0D1CA020FFF7B8FF258085490A78012A05D11422291C201CFFF7D5FF07E0C7
:20260000022A01D0032A02D1FF226932F3E7002030BDF0B581B0051CFFF786FE002800D1B0
:20262000BFE0784E3378042B00D1BAE02B051B0DED1A01231B05E91A00910C0BA310580F88
:202640000319DF10202F00DBABE08020FFF785FF3078012802D16C4A6C4906E0022802D0AF
:20266000032800D09DE06A4A6A49AA23138055230B8030232B80012815D1674A6749281C66
:20268000FFF792FF00280ED06548A310590F0B19D910CB00E11A0122131C8B40C15D19437B
:2026A000C155101C7EE03078022801D0032878D15C4A1378002B0DD10099584A531C9942A4
:2026C0002CD25B10994222D25B10994212D2042600242BE0544A11688D4206D304266310E3
:2026E000990F0B1999108B001EE0012292038B1A9D4207D30226E30F19194B105900631A49
:20270000E41A13E0032292038B1A9D4206D30826A310590F0B19D910CB0005E01026E31082
:20272000190F0B1919110B01E11A641A02281AD13E4A3A49281CFFF737FF002831D0384865
:20274000A310590F0B19DF10A310590F0B19D910CB00E11A01228A40C15D1143C1550134B3
:20276000013EECD11BE003281BD1314A2B49281CFFF71AFF002814D02948A310590F0B194D
:20278000DF10A310590F0B19D910CB00E11A01228A40C15D1143C1550134013EECD1012095
:2027A00000E0002001B0F0BD30B501252D05FFF7BBFD00286ED0134C2378042B6AD0802067
:2027C000FFF7CBFE2078012805D1AA230E4A13800E4A0D4908E0022801D003285AD1AA2337
:2027E0000B4A13800B4A0A495523138010230B8001282AD10F4A0949281CFFF7D5FE00287C
:202800001AE0C0468E422000AAAA100054551000AA0A100054051000A8610000FFFF000077
:202820006E422000B0422000F441200080841E0080969800A086010007D00020164BFF21F2
:20284000195401302028F9D322E02378022B0ED1124A1349281CFFF7A7FE002807D0002067
:202860000D4BFF21195401302028F9D310E02378032B0FD10B4A0A49281CFFF795FE0028F8
:2028800008D00020044BFF21195401302028F9D3012000E0002030BD6E4220008096980093
:2028A000FFFF000000E1F50500217B4B585401314029FAD3704710B5000BC2084007400F5D
:2028C000012383401806000E734CA35C002901D0034300E08343A35410BDF0B581B0051C86
:2028E0000E1C20E0290B0091CF084807400F012383401C06240E6849C85D204009D1281CE5
:20290000012100F0A4F8002810D06348C35D2343C355009A531C1B03581E431B591CB14255
:2029200003D2761A451C002EDCD1012001B0F0BD00B500205949087059490880FFF7B4FFB5
:2029400000F0FEF900F008FA0006000E00BD0120704730B551480378002B14D1504D29889E
:20296000002901D101201DE04E4A14684E48231A01200006834201D24B4BE41A201CFFF7D2
:20298000ACFF002801D100200CE0484A2988201C00F0C8FA2988884201D0002000E00120E8
:2029A00000232B8030BDF0B5061C0F1C3B480378002B21D13A4C3B4D2088002809D0296807
:2029C00043189E4206D0FFF7C4FF002814D0002020802E6021884B1C23802088334B5F5447
:2029E00029684318190503D0FF230133984207D1FFF7AFFF002801D1002002E0002323808C
:202A00000120F0BD70B5051C0C1C161C002023490B78002B09D12A1C311C201C00F05CFB1E
:202A2000B04201D0002000E0012070BD70B5061C0C1C151C002019490B78002B06D1321C90
:202A4000291C201C00F04CFB0006000E70BD10B5041C12480378002B12D1201C00290AD076
:202A60000121090300F092FB002809D0201C0121FFF721FF09E00E4900F088FB002801D189
:202A8000002003E0FF20FFF70FFF012010BD00B500F03EFA012000BDB1422000F142200001
:202AA00004422000F8412000000000FFF2422000FFFFFF0FF0B581B000900D1C161C1F1CFC
:202AC000069C002D2FD000F09CF8600840007B4900F00CF900F0B9F8041C012C0ED000F087
:202AE000A5F8201C20E07549307800F0FFF800F0ACF8041C0128F2D13618013F002FF2D190
:202B00000DE06E49009A107800F0F0F800F09DF8041C0128E3D1009909180091013D002DDF
:202B2000EFD100F083F8012001B0F0BD00B5644800F004F800BD63490868704710B5041C29
:202B400000F04FF8FFF7E6F9600002D500F053F801E000F046F8230C1B045A480168194333
:202B60000160002C04D5192252041068400700E06007400F0143534A11603020204000F017
:202B800003F800F00DF810BD00B54E4909683023994301434B4A116000F002F800BD7047E4
:202BA00030B5494C47480168302008400009C0004A07520FFF218140042A09D29300434D83
:202BC000EB580B40C34063609300414AD25804E0404A0A40C24062603F4A1140C140216081
:202BE00030BD3E490B681B0A1B020B600B68222003430B607047394803681B0A1B02036093
:202C0000704700B52F490B685B0001D5FFF7E9FF2A490B6803201843086031490B68032171
:202C20000B432F490B60FFF74BF900BD00B5FFF758F92B490B689B089B000B6021490B6803
:202C40005B0001D5FFF7D7FF00BD70B51E4D0320C6430124234A1168086840084000086093
:202C6000214A11680868A0430860144A13689B089B00022018431060286800F058F8194A7E
:202C800010680368DB0700D50324286800F04FF80A490B6833400B60286800F048F81249ED
:202CA0000B6818680121084318600E490B681868012108431860201C70BD70474800320073
:202CC00012000040FC412000FC432000183B2000283B2000110601010A0101018C0032000C
:202CE00020C4320000C0320000C4320030B4041C114B08251B6880221040002801D01D229C
:202D000000E008220A6092080C480A60006892086400401E0028FCD10A60181C401E00280A
:202D2000FCD1201C013D002DE5D130BC7047401E0028FCD17047C046FC43200000442000F3
:202D4000A8490B7801218B43A6490B700023A6490B70012070477047F0B586B0A34DA44ECC
:202D6000A04C2968059169680491A2490968029137687068039011232B6003200002686035
:202D8000DB019C48036001239B0233602320400270600023009398481A1C191C00F08EFCEC
:202DA000237801208343237001A800F09DF9002853D00021914DCB00EA18137883421AD17D
:202DC000537801AF3E78B34215D193787E78B34211D1D37801AFBE78B3420CD113798848B0
:202DE000037093798748037023780C2083430120617000211BE001310906090E0729D9D343
:202E0000082001A90B78202B00D107206070C300E81883797B4A137001AA907803071B0F5C
:202E2000774A137023780C2083430121081C034320208343C807800E034323706A4A1378BA
:202E4000002B06D100F04AF8002802D0002000F04CF800F0AAFA012009E0059A2A60049A8B
:202E60006A606449029A0A603760039A726006B0F0BD30B5051C634C2378DB0603D55020F3
:202E800000F03BFC06E0062000F037FC00F018F88007FBD523781B0703D500F011F8C00730
:202EA000FBD42B02012119430804000C00F045FC23781B0703D500F003F8C007FBD430BD4C
:202EC00010B581B005236C46E370A31CE11C0122101C00F0BAFCA07801B010BD00B5FFF7DD
:202EE000EFFF3C210840801000BD10B503079C0EFFF7E6FF3C2188430443201CFFF7B9FF45
:202F0000404A1378DB0702D5201CFFF7B2FF10BD00B5FFF7D5FFC007FBD400BD00B500F0BC
:202F200059FA00BDF0B587B001900C1C151C00F0BCF82C490B78DB0703D4FFF70DFF00283C
:202F400001D0002C01D1002098E027480378002B03D00020FFF7C9FF0EE02A480378DB0688
:202F600003D5502000F0C9FB06E0062000F0C5FBFFF7A6FF8107FBD522490878430643D55A
:202F8000FF270137830700D58027019E311C381C00F09AFD3A1A0292A24200D90294029831
:202FA000211A381C00F074FD049103902A1C0299301CFFF7B3FF019E029976186D1805E0F2
:202FC000391CFFF7ABFF019EF619ED1901962A1C301C039901390391F2D20499FFF79EFFC1
:202FE00042E0C046F2432000F64320008C00320080023900FC013900E02E0000383B2000AB
:20300000F7432000F8432000062000F076FBAF21012C00D1022105AA117001A883785370EC
:20302000437893700378D3702978013506A80170012300930521081C00F0D8FBFFF768FFFD
:20304000661E0CE02978013505AA5170012300930221081C00F0CAFBFFF75AFF013E002E4A
:20306000F0D1042000F049FBAC490B78002B02D00320FFF73AFF00F003F8201C07B0F0BDE5
:2030800000B5A74803781B060ED5A6490878830805211940042907D1B92000F02EFBA149B3
:2030A0000B78082003430B7000BD10B59D4C23781B0710D5AB2000F020FB002000E0013090
:2030C0000322A1560902A2780A439042F7D3237808208343237010BD00B500F066FA00BD1B
:2030E00000B500F0E7F900BD10B583B0041C9F23684683701523C37090230293002C00D163
:2031000001ACAB2000F0F9FAFF2087300138FDD1231C694602310322012000F096FB2078F7
:20312000002803D0FF2801D003201DE0231C694603310222012000F088FB0023A3702078D4
:20314000002801D0FF280CD1231C02A90222042000F07BFB0023A3702078002803D0FF28EA
:2031600001D0022000E0002003B010BD00B56D480378DB0703D4FFF7EFFD002805D06A49AC
:203180000878030401200004181800BDF0B582B001900D1C002463480378DB0703D4FFF70C
:2031A000DBFD002870D0FFF7B3FEFFF77EFF5B490B78002B05D0FFF791FE061C0020FFF7D1
:2031C00094FE062000F099FA564A5178062927D001231B03554A9D4211D801A803781D0635
:2031E00047783F043D4383781B021D4314234B439918097B0D43281C00F0C8FA33E0DB00A7
:203200009D421AD801A803781D0647783F043D4383781B021D4314234B439918497BE9E792
:2032200001AB197808065A78120410439A78130218433F498A791043DEE714234B4399186D
:20324000C87B00F05AFA0EE0013423040BD1FF2369464B7001238B70CE23CB70481C012263
:20326000032100F0DEFBFFF72BFEC107ECD42B480378002B02D0301CFFF737FE042000F044
:203280003CFAFFF7FDFE012002B0F0BDF0B5A0B0061C0F1C151C234C2378DB0703D4FFF75B
:2032A0005BFD00281FD023780420034323700AE08021FFF711FF6A468021301CFFF732FEB3
:2032C00080368037803D6A46381C802DF0D8291CFFF702FF23780420834323706A46291C02
:2032E000301CFFF71FFE20B0F0BD10B50D4C2378DB0703D4FFF730FD002855D00848037845
:203300001B0651D50B481922520411680907090F012914D319D002291ED00DE0F643200088
:20332000F8432000F2432000F7432000803B2000003C2000383B2000042913D019E06378D5
:20334000DB00C0184079302111E06378DB00C01840794001803812E06378DB00C018407946
:20336000182104E06378DB00C01840790C21484304E06378DB00C0184079000190384310EA
:20338000990F0B189810A070A278000AE07000060014024302D50023A370E37023781020AC
:2033A00003432370FFF76CFE10BD00B5B7480378DB0703D4FFF7D0FC00280AD0B4480378E4
:2033C0001B0606D5FFF771FEB0490B78102083430B7000BDF0B583B002900E1C141CAD4D24
:2033E00001AF002E64D0FFF793FD062000F085F902A909780B0602A94A78120413430A1C65
:20340000191C927813021943022211430191A2490B6893430B602B68A0490B402B600421DC
:203420003A7801379E4802600139F9D12B689D490B432B600A026A62042169606B6A1B034B
:20344000FCD52BE021789648016061780160A1780160E17801602179016061790160A179FA
:203460000160E1790160217A0160617A0160A17A0160E17A0160217B0160617B0160A17B6A
:203480000F3401602B6887490B432B600A026A620F2169606B6A1B03FCD50F3E0F2ED1D884
:2034A00001230093221C311C301C002300F09EF903B0F0BDF0B584B001900E1C0392754C8A
:2034C000794F0020C54371480378DB0701D5002E01D1002067E0FFF71BFDFFF7E6FD03239C
:2034E00069460B7001A98A7869464A7001A949786846817001A800786B46D870236803B427
:203500006A490B4023606448036802218B43036003BC03237B607A6079607860236861493F
:203520000B4323600902616204216160636A1B03FCD523685D490B4023605D4801682368B2
:20354000032109030B43236019E00F210F2E00D8311C584A62626160636A1B03FCD50022DA
:2035600008E03B686B401B069B0D53482D0AC3585D4001328A42F4D34E4A6262761A002EE2
:20358000E3D1454A136802221343434A13600023DB435D40039A1570290A5170290C9170C9
:2035A0002B0ED370012004B0F0BDF0B584B001900D1C171C374C3C4E002102913348037890
:2035C000DB0703D4FFF7C8FB00285BD0002D59D0FFF79EFCFFF769FD03236846037001A8F4
:2035E00080786946487001A94A7869468A7001A909786B46D970236803B42C490B402360AD
:203600002548036802218B43036003BC03237360706072607160236822490B432360090281
:20362000616204216160636A1B03FCD523681F490B4023601E4801682368032109030B438C
:20364000236017E00F210F2D00D8291C194A62626160636A1B03FCD5002203E033683B7078
:20366000013701328A42F9D3124A62626D1A029840180290002DE5D1074803680220034317
:2036800005480360029804B0F0BDC046F2432000F84320000006360018013900FFF7FFFF47
:2036A000040736000008000000073600FF87FFFF3000320000000800D83D200010B5B94C97
:2036C000B94A136802221343B74A1360B74900F0DFF9013841002068012210432060B44BBF
:2036E000B44A1360206F40231843206798432067B14B1360B14A116010BD10B5AD4AAA4CC9
:20370000236802218B4323601168AD4B19401160AC4C206011680123DB0219431160180296
:20372000506201205060536A1B03FCD59E480368022003439C48036010BD30B581B09D4991
:20374000994D2B68022293432B606D46A870AA7803041C0EEC7008689B4B18400860994DF5
:203760002A602C6008680123DB021843086018024862022048604B6A1B03FCD58A48036890
:20378000022003438848036001B030BD10B581B08849854C23680222934323606C4620700E
:2037A000020A6270020CA270030EE3700868864B1840086000206B461A5C824C22600130DE
:2037C0000428F8D308680123DB021843086018024862042048604B6A1B03FCD57248036865
:2037E000022003437048036001B010BD70B5714C002829D0002927D0002B08D06A4E33684F
:203800000225AB43336025686F4B1D402560002304E0157801326B4E356001338B42F8D3F6
:203820000499002910D025680123DB021D432560190261626060636A1B03FCD55A48036808
:20384000022003435848036070BDF0B582B0051C01935E4E574F00D1A1E0002A00D19EE027
:2038600051480368022083434F4803603868544B1840386033683368336833683368336891
:203880003368336833683368336833683368336833680C1CEB1DDB0800936807400F072822
:2038A00021D801A1095C8F4406302A241E18120C2078013470602078013470602078013456
:2038C000706020780134706020780134706020780134706020780134706020780134706007
:2038E000013B002BE4D838680723DB02184338600120C0047862501978607B6A1B03FCD537
:20390000019C009F6807400F07281AD801A1095C8F44C0460824201C1814100C33682370CE
:2039200033682370336823703368237033682370336823703368237033682370013F002FD6
:20394000ECD8D31DDD085007400F072821D801A1095C8F4406302A241E18120C3068207026
:20396000013430682070013430682070013430682070013430682070013430682070013441
:20398000306820700134306820700134013D002DE4D805480368022003430348036002B0C6
:2039A000F0BDC0469400320018013900C05D000021023300000636002002330030063600CC
:2039C000FF87FFFF04073600FF97FFFF000736002B490B68402003430B600B6820208343E0
:2039E0000B600B68402083430B60002325490B60704700B500F005F8012801D100F001F81F
:203A000000BD10B5204C012320480360FEF7F7F80820A066A36E1B07F8D423681806000E01
:203A200010BD30B5184D002A00D00122141C0222AA66AB6E9B07FAD51EE063180F2B01DCD4
:203A40000A1C03E00F231A1B1204120C002C02D004232B600024891A0904090C05E0013A09
:203A60001204120C037801302B60002AF7D10222AA66AB6E9B07FAD50029DED130BDC04660
:203A800020043600300436001C0036002C04360030B400230124021C04D10E4A002A10D029
:203AA00030BC1047914207D3891A1B194D08AA42F8D252006400F5E7012C02D052086408DD
:183AC000F0E7181C30BC704700B5FFF7E1FF081C08BC1847000000006E
:020000040020DA
:203AD8000108000106000000C8001000E8101000E880100000E0130000F0130000E0170079
:203AF80000F0170000E0190000F0190000E01F0000F01F00434343010101010101010100C6
:203B1800200704031605030217050201110601011B06040311050302120302010A0101019F
:203B380003C220140F03EC00031F6601011E6D00031F6500001EEE0002BF480000FF300096
:203B580002BF490001FF300003C220100003EC0003202013071EEC0003BFFF140F1E300096
:203B78000320FF140F1EEC0006049F0501030B0202FFFFFF20D8D8C7B9AB000006049F0577
:203B980001030B0202FFFFFF20D8D8C7FFFF0000060415050103FF0202FFFFFF205252621A
:203BB800B9AB00000604900501030B0202AF50FFFF20D8C7FFFF00000604900501030B026D
:203BD80002AF50FFFF20D8C7FFFF000006049F0501030B0202FFFFFF20D8D8C7B9AB000058
:203BF80006049F0501030B0A02FFFFFF20D8D8C7B9AB000006049F0501030B0202AD50FF2F
:1C3C1800202020C7FFFF000006049F0501030B0202FFFFFF20D8D8C7B9AB0000B2
:020000040020DA
:0843FC000100000001000000B7
:00100001EF
