:020000040020DA
:10456800044B1B884FEA1323012203200DF6B8FAE7
:1045780011F653B91A4F200000F0ACF80DF650F8B8
:1045880000F081F900F0BAF9002801D00DF69CBDC1
:104598000DF6E1BD80F86E60284600F074F900F071
:1045A800ADF9002801D00DF6F4BD0DF622BEBDE828
:1045B800104000F0D8B9E01C024900F087FC0CF666
:1045C8002CBD0000F84E200001D0052901D10CF6C1
:1045D800A8BE00F022FA0CF6B6BE000010B500F036
:1045E80054FA04460AF66EBE0BF643FC00F05BFA7A
:1045F8000AF6D6BE00F095BA44F6C0F800F0CFFA35
:104608000CF618BB03B4064F4FF448180549086860
:1046180010B103BC28F662BA03BC28F67ABA00BF08
:10462800FC102000100E200002490720087600F038
:1046380021BB00004031200018B5254B421AC3F8B1
:1046480000D0009B121F23F4784303F5704323F036
:10465800404343F0805303F100430093884202D85B
:1046680043F4806001E023F48060C0F38021C1F14D
:10467800010161F3DB60C0F3C06161F35D70C2F3F7
:10468800093161F30900C2F34A0161F31A4000904D
:1046980018BD38B5024621F0010022F0010529466F
:1046A800FFF7CAFF0A4C009069462846626828F658
:1046B8008BF86068401C606038BD13B5044C01A9D4
:1046C800626828F681F86068401C60601CBD0000C4
:1046D800EC4E20002DE9F0410D46044616461F46D3
:1046E8000821284644F671F83B46324629462046BA
:1046F800BDE8F0410AF668BD38B5054626A1042094
:104708000AF69AF8FF2028706946042026F67AFAF5
:10471800694602200AF690F8002408E0285D6946F8
:1047280026F670FA694602200AF686F8641C68784C
:10473800801CA042F2D838BD70B5054618480068FC
:1047480000281DD0174C0020E070F720A0709220A0
:10475800207101206071E21DF021501C26F68DFCAD
:104768000646A071062101EBC00060704DB1012D15
:1047780001D0022D03D12946204625F6E3F930461B
:1047880070BD2046FFF7B8FFF9E7AFF253000649BE
:10479800C1F82C017047000040242A2300000000C3
:1047A8004C2D2000CC3E2000B02B200070B50446D4
:1047B8000D4610460FF671F905F0004104F00202AB
:1047C800114316D114F02C0F13D02C40044014F0D0
:1047D8000C0F0ED1A1060CD540060AD50BF6D4FB5A
:1047E80005F04001084302D04FF0004070BD024878
:1047F80070BD002070BD00000500008010B51BF6DC
:1048080065FC08B11AF6EBFD0021BDE810404FF435
:104818009662052012F610BB8648006890F8700072
:104828007047102900D910210A460146824843F6EC
:10483800A5BF102900D910210A4601467F4843F632
:104848009DBF7F48006800F0200070477C480168E1
:1048580021F02001016070477948016841F020018A
:10486800016070477648006800F04000704774485F
:10487800016821F04001016070477148016841F00A
:1048880040010160704770B56A480468257835B9F9
:104898006A48062204F10A01083843F66FFF607C73
:1048A80020B1E07A10B10520A0701EE0207B4007FF
:1048B80005D4A07C400702D40120A0700EE0207C23
:1048C800A17A042807DC042905DC5E4A00EB800095
:1048D8001044405CA070A078012804D1A07C20F08E
:1048E8000400A07404E0052802D11021524801E018
:1048F80052481021BDE870400DF6AFB870B50124DC
:1049080000F03DF920B106200CF61FFB002070BD19
:10491800484D28688078052811D3FFF7A3FF12E0D7
:10492800002403200CF611FB2968002081F8700090
:104938004548016809B104208847204670BD012810
:1049480004D9FFF77EFF0028F7D0E9E70DF663FBEF
:10495800F9E710B504463DA00CF6BAFA601C0CF64F
:10496800B4F9002010BD10B504463CA00CF6B0FA0E
:10497800B4F80110E01C0CF6DFF901200DF650FA2E
:10498800002010BD1CB501208DF800002948062222
:1049980001680DF101000A310C4643F6EFFE274885
:1049A80006222146083843F6E9FE072168460CF638
:1049B800C0FA1CBD1F48006881785A30062909D200
:1049C800DFE801F008060606030627A00CF680BA01
:1049D8000CF655BA704710B5164C206890F8701050
:1049E800042914D1017891B9817803290DD100F1F6
:1049F800710110225A3043F6C1FE2068062180F862
:104A0800701000215A300CF60AFC012010BD00205D
:104A180010BD0A490C39086070470648006880785C
:104A2800032805D105480C380068002800D0004745
:104A380070470000AC062000384F2000004F2000CF
:104A4800B006200040A30400B4062000456E632091
:104A5800696E666F3A204C544B0000006D617374A8
:104A6800657220696400000070616972696E672070
:104A78006D6574686F642C20426F746820496E708D
:104A88007574000013494860704710B50446C07833
:104A98003C2803D10F48406800B18047204610BD2C
:104AA8000C49086070470B480068002800D0004790
:104AB80070470948704710B501460622064843F674
:104AC8005DFE06220449054843F658FE04490120C4
:104AD800087010BD104F200078062000BC0D200083
:104AE8003906200030B5DDE90345884215D802288B
:104AF80013D34FF4486081420FD8B2F5FA7F0CD235
:104B0800521C5143B1EB830F07DA0A2B05D38342BA
:104B180003D8AC4201D8012030BD002030BD0720A9
:104B2800704707207047000010B50A4C207800280D
:104B38000ED10948FCF51EF8084809490068C86004
:104B48000848FCF51EF80848FCF517F80120207005
:104B580010BD0000184F2000931200002004200010
:104B68008C17200021120000ED1100000148007888
:104B780070470000194F200012490870704712480A
:104B88001249006809780278012A01D1407B00E0C7
:104B9800C07C884201D206207047002070470A482E
:104BA8000068017800F1E902012901D1407B00E0A9
:104BB800C07C102804D2C0F11001104443F605BE91
:104BC80070470000A4062000AC0620001A4F200001
:104BD8007FB54FF44812D2F8C000C00749D09648B4
:104BE800916A006809074FF0000501D5002035E0FB
:104BF800116A814203D1002025F685FE30E08F49F5
:104C08000968081A116901F00F0102290ED1D1684B
:104C18006422491C5143A1FB000201FB052100232A
:104C28004FF4166243F65CFD044616E08449864C50
:104C380009682468A1FB000201FB0521814A2B4673
:104C48001268624343F64CFD040006D002A92046D0
:104C580025F665FD02A825F610FE204622F670FD11
:104C68004FF4F040CDE9000501467848016001990C
:104C780041607FBD10B5764828F684FB76497548B3
:104C8800486110BD7548007808B1012070470320BD
:104C9800704710B57148007800280FD13BF6DCF951
:104CA80000280BD06E480068400703D5BDE81040C7
:104CB80028F6BABCBDE8104026F60EB810BD2DE99E
:104CC800F04105460024FBF569FC8046FBF569FCCC
:104CD8004FF44810016901F00F01022921D05F4B00
:104CE800604E614945B91A785ABB604F32683F78BF
:104CF8003A440F68BA4224D25D4A1468012C09D19B
:104D08005C4C5D4F24683F683C440F68BC4208D83F
:104D1800022414600968012231601A700021C161FF
:104D280004E04046BDE8F041FBF53EBCC1690129FD
:104D3800FCD1444909684161C261012481690029A3
:104D4800FCD14046FBF530FC002D07D1002C05D0E6
:104D5800BDE8F04140F2DC5025F6A7BEBDE8F08181
:104D68002DE9F047FBF51AFC8146FBF51AFC4FF4D8
:104D7800481CDCF81000394B00F00F000022022814
:104D880001D11A7053E01878002850D0DCF81800C8
:104D9800012805D1DCF81800012801D11A7043E078
:104DA800DCF81800012842D9DCF8100000F00F00E8
:104DB80002283CD02E4C264F2068DFF8B0803F1FD9
:104DC800022805D13A7003202060012088F80000ED
:104DD800DCF81810294E387846F82010401CC0B26C
:104DE8000A21B0FBF1F501FB15003870CCF81C2046
:104DF8001A702068032806D13878A8B928202260BC
:104E080088F8000000E078B90D4B00201A6056F8C9
:104E180020201C68401C22441A600A28F7DB501D19
:104E2800B0FBF1F0186002E001203BF65FF948465C
:104E3800BDE8F047FBF5B8BBDC0C2000E40C200013
:104E4800EC102000E0102000F810200000E100E045
:104E5800204F2000D94B2000A8222000DD10200080
:104E6800BC0C2000E4102000C4102000DC1020003E
:104E7800E8102000F0102000F4102000484F200017
:104E880070B50C461D4600230E4910E082420DD134
:104E9800B1F805202046A24200D8104682B2D1F8C7
:104EA800011028461DF6C8FB2B1903E0C91D0A7816
:104EB800FE2AEBD1184670BDAFF23B0002490860EC
:104EC80070470000DC4E2000180A200001B543F6A8
:104ED80055FC01BDBD1A4F20000200FE0000000075
:104EE80000000000000000000000000000000000BA
:104EF8000000000000000000D204000000000000D4
:104F08000000000000000000000000000000000099
:104F18000000071000000000000000008D4C200079
:104F28000000000000000000000000000000000079
:104F38000000000100000000000000000000000068
:104F48000000000000000000000000000000000059
:104F58000000000000000000000000000000000049
:104F68000000000000000000000000000000000039
:104F780070B52348234943F628FC00F0F3F822498A
:104F88000120087021480021017040F602704FF49A
:104F9800C005C5F814021E4948F2305008601D4982
:104FA80008604FF44810C16F21F40031C1674FF415
:104FB8006414206CC0070ED0002025F630FE55F88A
:104FC800E00F20F080002860206C20F003002064AF
:104FD800322025F66AFDFFF7D8FB00F045F90F49A6
:104FE8000D4808600F490E48086010490E480860CF
:104FF8000F4902200860BDE87040FFF75DBF000060
:10500800384F2000380000005C452000F8152000CB
:105018002011200050112000314620003845200082
:10502800704F20005C0C2000B54720000C072000C2
:10503800E8102000034802498A30FFF72ABB000025
:1050480069452000935701000348024900F25E2099
:10505800FFF71FBB81452000C71301000348024921
:105068004A30FFF716BB000005482000E3E40000C3
:10507800134812495C30FFF70CBB134811492E3016
:10508800FFF707BB11491248FFF703BB1248114944
:10509800801CFFF7FEBA11491148FFF7FABA124807
:1050A80010493230FFF7F5BA11481049801CFFF754
:1050B800F0BA11480F492830FFF7EBBA89452000AC
:1050C800712001009D452000632101005B492000FB
:1050D800A9220100B7452000C32201008D49200004
:1050E800791C0100BF452000EB0F0100BD492000DD
:1050F800E70E0100D1452000FD12010004490548D2
:10510800FFF7C7BA054804492830FFF7C2BA0000BC
:10511800E5452000C9F20000F14520007DF30000BC
:1051280006490748FFF7B5BA06490748FFF7B1BA75
:1051380007480649801CFFF7ACBA0000ED4A20007A
:10514800A5100400274B200011820200FD45200015
:105158003382020001490248FFF79BBA314B200015
:10516800C512000010B500F010F827490870C0B249
:10517800012809D1254800680121B1EB106F03D03F
:10518800BDE8104029F6DABD10BD2DE9F0414FF415
:1051980080752C460F2101201AF678F90746AE00D3
:1051A800002332460F2101201AF6CEF8641EFDD2E4
:1051B8000F2101201AF6EFF9044600233A460F2181
:1051C80001201AF6C1F814B10020BDE8F0810E21C3
:1051D80001201AF65BF90446002332460E2101200D
:1051E8001AF6B2F86D1EFDD20E2101201AF6D3F977
:1051F8000546002322460E2101201AF6A5F80DB116
:105208000120E2E70220E0E7194F2000744F200058
:10521800034802491430FFF73CBA00000146200059
:10522800250C0100034802493830FFF732BA000064
:105238000D46200099CA020005490648FFF729BA19
:1052480005490648FFF725BA05490648FFF721BA78
:105258009B4C20001DCA0200C74C2000F50004002A
:10526800694D20007101040010B5FFF7E3FEFFF758
:10527800EBFEFFF7F3FEFFF7FBFEFFF7FEFEFFF77F
:1052880001FFFFF703FFFFF706FFFFF708FFFFF730
:105298000BFFFFF70EFFFFF731FFFFF733FFFFF7B5
:1052A8003FFFFFF741FFFFF743FFFFF753FFFFF70C
:1052B800AFFFFFF7B7FFFFF7BFFFFFF7C1FFBDE87D
:0852C8001040FFF7C1BF000018
:0400000500000000F7
:00000001FF
